:020000041000EA
:101000004805002019100010000000009910001081
:1010100000040100000100001149124A124B00F0C7
:1010200018F8124880471249124A134B00F011F881
:101030001249134A134B00F00CF81349134A0020CD
:10104000521A02DD043A8850FCDC114880471148EE
:1010500080479B1A03DD043BC858D050FBDC704727
:10106000742800100C000020440100209D10001086
:10107000AC290010480500208C050020F029001044
:101080008C0500208C0500208C0500209805002090
:1010900025270010A5260010FEE7000080B500AF50
:1010A00000F004F801F0CCFABD4680BD80B500AF79
:1010B0000A490A4B1B899BB28022520113439BB2FF
:1010C0000B810649054A4823D35A9BB2802212015C
:1010D00013439AB24823CA52BD4680BD0000054062
:1010E00080B500AF124B1A68FF231B0213401A0A87
:1010F000104B1A600E4B1B68FF221A400E4B1A60F1
:101100000C4B1B68002B0ED00A4B1B681A020A4BB3
:101110001B68D3180948191C00F0BCFD031C5A00B9
:10112000074B1A6002E0064B064A1A60BD4680BDB6
:10113000000301408C05002090050020000024F4ED
:10114000FC3F00200048E80190B585B000AFF86092
:101150007A600B23FB180A1C1A700B23FB181B78F0
:101160009B08DBB2181C0B23FB181B789B08DBB217
:101170001A1CFB6804329200D3580B22BA1812785A
:1011800003210A40D200111CF8228A40D2431A409F
:10119000111CFB68021D9200D150FB685B6F0B2293
:1011A000BA1812785200111C03228A40D2431A4006
:1011B000FB685A670B23FB181B78DB08DBB2181C93
:1011C0000B23FB181B78DB08DBB21A1CFB68103200
:1011D0009200D3580B22BA18127807210A409200C5
:1011E000111C04228A40D2431A40111CFB68021CC5
:1011F00010329200D1500B23FB181B78DB08DBB2B6
:10120000181C0B23FB181B78DB08DBB21A1CFB68CD
:1012100010329200D2587B685B781C1C0B23FB18A1
:101220001B7807210B409B009C40231C1A43111C78
:10123000FB68021C10329200D150FB68204A934296
:101240000BD1FB681B6E0B22BA181278012191405A
:101250000A1CD2431A40FB681A667B681B78DBB213
:101260005BB2002B07DA7B685A680B23FB181B78EC
:101270009A40FB685A600B23FB181B789B08DBB273
:10128000181C0B23FB181B789B08DBB21A1CFB688D
:1012900004329200D2587B681B781C1C0B23FB186D
:1012A0001B7803210B40DB009C40231C1A43111CBC
:1012B000FB68021D9200D150BD4605B090BDC046EE
:1012C0000002044080B500AF024BC3225A62BD4603
:1012D00080BDC0460000014080B500AF054BC02274
:1012E0005A62C046034B5B6A04221340FAD1BD46E2
:1012F00080BDC0460000014080B582B000AF78607C
:10130000FFF7EAFF0C4A0C4B1B680C4919407B683D
:101310009B6819437B685B680B431360FFF7D2FF40
:101320007B685B781A1C7B681B78101C191C00F00A
:1013300025F8BD4602B080BD00030140FFFFF0FF6D
:1013400080B582B000AF021CBB1D1A80FFF7C4FF3E
:10135000094B094A1169BA1D12880A431A61C0462D
:10136000054B1A688023DB051340F9D1FFF7AAFF6C
:10137000BD4602B080BDC0460003014080B584B0C8
:1013800000AF78603960FFF7A7FF214B1A68FF2391
:101390001B0213401B0AFB601D4B1D4A12681D49AE
:1013A00011403A680A431C490A431A60C046184B68
:1013B0001A688023DB051340F9D1FA687B689A42EA
:1013C00006D8FA687B68101C191C00F053F805E079
:1013D000FA687B68101C191C00F022F80C4B0C4AB0
:1013E00012680E4911407A6812020A430A490A43F8
:1013F0001A60C046064B1A688023DB051340F9D1FA
:10140000FFF760FFFFF76CFEBD4604B080BDC0462D
:101410000003014000FF0FC00000F03FFF000FC0BD
:1014200080B582B000AF7860396014E07B689B08BB
:101430007B600D4B0C4A12680C4911407A6812020D
:101440000A430B490A431A60C046074B1A688023B7
:10145000DB051340F9D13B689A007B689A42E5D3DB
:10146000BD4602B080BDC04600030140FF000FC072
:101470000000F03F80B582B000AF7860396019E0BD
:101480007B68002B01D101237B607B689B007B6024
:101490000C4B0C4A12680C4911407A6812020A433C
:1014A0000A490A431A60C046064B1A688023DB05C6
:1014B0001340F9D17B689A003B689A42E0D3BD465D
:1014C00002B080BD00030140FF000FC00000F03FEC
:1014D00080B582B000AF78607B6880225200DA600D
:1014E000BD4602B080BDC04680B582B000AF786016
:1014F0007B6801221A61BD4602B080BD80B582B012
:1015000000AF78607A68A023DB059A4202D10220FE
:10151000FFF716FFBD4602B080BDC04680B582B061
:1015200000AF78607B68181CFFF7E8FFBD4602B08B
:1015300080BDC04680B584B000AF78600A1CFB1C3B
:101540001A707B68181CFFF7E9FF7B68181CFFF70F
:10155000BFFF7B681B68FB60FB68074A1340FB60AA
:10156000FB1C1B789B03FA681343FB607B68FA68DB
:101570001A60BD4604B080BDFF3FFFFF80B582B05A
:1015800000AF786039607B68181CFFF7ADFF3B68DF
:101590001A687B685A613B685B7BDB06DB0FDBB25A
:1015A0001A057B685A603B681B7B1B071B0FDBB26D
:1015B0001A1C7B685A623B681B7B1B061B0FDBB245
:1015C0001A1C7B68DA623B685B7B1B071B0FDBB274
:1015D0001A1C7B681A623B685A687B689A613B6890
:1015E0009B6814225A407B689A64BD4602B080BD55
:1015F00080B584B000AF786039607B681B68FB60A1
:101600003B681B0CDA43FB681340FB603B681B0420
:101610001B0CFA681343FB607B68FA681A60BD46CE
:1016200004B080BD80B584B000AF7860081C111C88
:10163000FB1C021C1A70BB1C0A1C1A707B685B68BE
:10164000BB60BB6803229343BB60FB1C1B78BA687A
:101650001343BB607B68BA685A607B685B69FB6058
:10166000BB1C1B78012B05D1FB688022D2001343E1
:10167000FB6003E0FB68044A1340FB607B68FA6888
:101680005A61BD4604B080BDFFFBFFFF80B584B04A
:1016900000AF7860081C111CFB1C021C1A70BB1CDC
:1016A0000A1C1A707B685B68FB60FB680C22934322
:1016B000FB60FB1C1B789B00FA681343FB607B6894
:1016C000FA685A607B685B69BB60BB68074A134075
:1016D000BB60BB1C1B781B02BA681343BB607B68F2
:1016E000BA685A61BD4604B080BDC046FFFCFFFF2A
:1016F00080B584B000AF78600A1CFB1C1A707B6850
:101700005B68FB60FB68074A1340FB60FB1C1B78AF
:101710001B03FA681343FB607B68FA685A60BD4696
:1017200004B080BDFFCFFFFF80B584B000AF78600C
:101730000A1CFB1C1A707B685B69FB60FB688022DB
:101740009343FB60FB1C1B78DB01FA681343FB60CF
:101750007B68FA685A61BD4604B080BD90B585B01B
:1017600000AF78600C1C101C191CFB1C221C1A708A
:10177000BB1C021C1A707B1C0A1C1A707B685B68FD
:10178000BB60BB681D4A1340BB60FB1C1B789B04FD
:10179000BA681343BB607B68BA685A607B685B6950
:1017A000FB60BB1C1B78012B05D1FB688022520417
:1017B0001343FB6003E0FB68114A1340FB602023E6
:1017C000FB181B78002B05D0FB6880221204134302
:1017D000FB6003E0FB680B4A1340FB60FB680A4AAE
:1017E0001340FB607B1C1B78DB06FA681343FB602D
:1017F0007B68FA685A61BD4605B090BDFFFFF3FFF4
:10180000FFFFFFFEFFFF7FFFFFFFFFE780B584B014
:1018100000AF78600A1CFB1C1A707B685B68FB6079
:10182000FB68074A1340FB60FB1C1B789B03FA68AC
:101830001343FB607B68FA685A60BD4604B080BD04
:10184000FF3FFFFF80B584B000AF78600A1CFB1C2F
:101850001A707B685B68FB60FB68074A1340FB609B
:10186000FB1C1B781B02FA681343FB607B68FA6859
:101870005A60BD4604B080BDFFFCFFFF80B584B058
:1018800000AF78600A1CFB1C1A707B685B68FB6009
:10189000FB68074A1340FB60FB1C1B789B02FA683D
:1018A0001343FB607B68FA685A60BD4604B080BD94
:1018B000FFF3FFFF80B584B000AF78607B685B68A2
:1018C000FB60FB68064A1340FB60FB688022520203
:1018D0001343FB607B68FA685A60BD4604B080BD64
:1018E000FFFFFEFF80B584B000AF7860081C111CBC
:1018F000FB1C021C1A70BB1C0A1C1A707B685B68FC
:10190000BB60BB68174A1340BB60BB688022920271
:101910001343BB607B68BA685A607B685B69FB6095
:10192000BB1C1B78002B05D0FB688022920313435D
:10193000FB6003E0FB680C4A1340FB60FB1C1B7858
:10194000012B05D1FB688022D2031343FB6003E027
:10195000FB68064A1340FB607B68FA685A61BD4623
:1019600004B080BDFFFFFDFFFFFFDFFFFFFFBFFFF4
:1019700080B586B000AFF860B9607A60FB681B681C
:101980007B617B692A4A13407B61BB685B789B045F
:101990007A6913437B617B69264A13407B617B68CC
:1019A0005B781B057A6913437B617B69224A13408C
:1019B0007B61BB689B78DB057A6913437B617B693C
:1019C0001E4A13407B617B689B781B067A69134330
:1019D0007B617B691A4A13407B61BB68DB78DB065D
:1019E0007A6913437B617B69164A13407B617B688C
:1019F000DB785B077A6913437B617B69F022934351
:101A00007B61BB681B781B017A6913437B617B692F
:101A10000D4A13407B617B681B781B027A69134374
:101A20007B61FB687A691A60BD4606B080BDC0461E
:101A3000FFFFF3FFFFFFCFFFFFFF7FFFFFFFFFFE73
:101A4000FFFFFFE7FFFFFF9FFFF0FFFF80B588B0BC
:101A500000AFF8607A600B23FB180A1C1A701F2372
:101A6000FB180B22BA181278013A1A70FB681B682F
:101A7000BB611F23FB181B78DB18DAB21723FB1896
:101A800010321A701723FB181B7803229A40131C7C
:101A9000DA43BB691340BB617B685B781A1C172370
:101AA000FB181B789A40131CBA691343BB611723B8
:101AB000FB181F22BA18127816321A701723FB1857
:101AC0001B7801229A40131CDA43BB691340BB61A7
:101AD0007B689B781A1C1723FB181B789A40131CF1
:101AE000BA691343BB611F23FB181B78DB18DAB2FA
:101AF0001723FB1819321A701723FB181B780322BF
:101B00009A40131CDA43BB691340BB617B68DB78E6
:101B10001A1C1723FB181B789A40131CBA6913432D
:101B2000BB611723FB181F22BA18127892001A7093
:101B30001723FB181B780F229A40131CDA43BB694A
:101B40001340BB617B681B781A1C1723FB181B789A
:101B50009A40131CBA691343BB61FB68BA691A60E7
:101B6000BD4608B080BDC04680B582B000AF786089
:101B70000A1CBB1C1A80BB1C1A887B685A63BD46B2
:101B800002B080BD80B582B000AF7860081C111C27
:101B9000FB1C021C1A703B1C0A1C1A80FB1C1B78C5
:101BA000002B04D13B1C1A887B68DA6303E03B1CE2
:101BB0001A887B685A64BD4602B080BD80B586B085
:101BC00000AF7860081C111CFB1C021C1A70BB1CA7
:101BD0000A1C1A70FB1C1B780B2B25D89A00224B71
:101BE000D3181B689F4603237B6100233B6120E0E1
:101BF0000C237B6102233B611BE030237B610423C8
:101C00003B6116E0C0239B007B6108233B6110E031
:101C1000C0231B017B610A233B610AE0C0239B01B7
:101C20007B610C233B6104E000237B6100233B616B
:101C3000C0467B69002B14D07B68A8229B58FB60B0
:101C40007B69DA43FB681340FB60BB1C1A783B6975
:101C50009A40131CFA681343FB607B68A821FA685A
:101C60005A50BD4606B080BD7027001080B582B0C6
:101C700000AF786039603B685A687B681A653B68DA
:101C80009A687B685A653B681A687B68DA64BD4667
:101C900002B080BD80B588B000AF78603960EFF3E6
:101CA00010837B617B693B6172B63B69FB610C4BC6
:101CB00004225A630A4B7A681A62094B3A685A62DC
:101CC000074B9B6ABB61FB69FB60FB68BB60BB6841
:101CD00083F31088BB69181CBD4608B080BDC046A0
:101CE0000000034080B500AFBD4680BD80B582B026
:101CF00000AF78600A1CFB1C1A70FB1C1B780122C9
:101D00009A407B68DA60BD4602B080BD80B582B083
:101D100000AF786039607B685A693B685B041A439E
:101D20007B685A61BD4602B080BDC04680B582B0B6
:101D300000AF78607B680122DA60BD4602B080BDEA
:101D400080B582B000AF786039607B683A681A610C
:101D5000BD4602B080BDC04680B582B000AF78609D
:101D60000A1CFB1C1A707B68A4229A58FB1C1B7867
:101D7000012199400B1C1A437B68A4215A50BD468F
:101D800002B080BD80B582B000AF78600A1CFB1C39
:101D90001A707B68B4229B58062293431A1CFB1CC2
:101DA0001B785B00191C06230B401A437B68B42187
:101DB0005A50BD4602B080BD90B587B000AF786084
:101DC0001723FB1801221A701623FB1801221A7020
:101DD0007B681B7F002B00D0AFE07B681B688C22E8
:101DE0009B581622BC18181C00F0C8FB031C23705B
:101DF0001623FB181B78002B00D09AE07B689A68AA
:101E00007B681B689B6C101C191CFFF7B7FB7B6879
:101E10009A687B681B685B88101C191CFFF7A4FE7E
:101E20007B689A687B681B689B88101C00211A1CC1
:101E3000FFF7A8FE7B689A687B681B68DB88101C2C
:101E400001211A1CFFF79EFE7B681B689B6CDB78E8
:101E500002221340DBB2002B08D17B681B689B6C0D
:101E6000DB7804221340DBB2002B08D07B685A6871
:101E70007B681B68DB6B101C191CFFF7B9FB7B68C8
:101E800099687B681B6844229B5C081C191CFFF73F
:101E900079FF7B685A687B681B69101C191CFFF767
:101EA0004FFF7B685A687B685B69101C191CFFF741
:101EB00047FF7B689A687B681B681B6C101C191CA9
:101EC000FFF7D4FE7B68181C00F062F97B68181CD1
:101ED00000F03EF87B68181C00F0FEF87B681B6879
:101EE0008C229B581B683B617B681B689B6C1B7B2F
:101EF0001B071B0FDBB2FB60FB683A69DA40131C5F
:101F00003B617B683A691A627B6801221A77172362
:101F1000FB1800221A707B681B681B78002B10D0FE
:101F20001723FC187B68181C00F01EFA031C237092
:101F300007E07B6800221A7703E01723FB180222D0
:101F40001A701723FB181B78181CBD4607B090BDEC
:101F500080B582B000AF78607B689A687B681B6848
:101F60005B7C101C00211A1CFFF728FE7B689A6816
:101F70007B681B689B7C101C02211A1CFFF71EFE4D
:101F80007B689A687B681B68DB7C101C03211A1C29
:101F9000FFF714FE7B689A687B681B681B7D101C2A
:101FA00004211A1CFFF70AFE7B689A687B681B688D
:101FB0005B7D101C05211A1CFFF700FE7B689A68E8
:101FC0007B681B689B7D101C01211A1CFFF7F6FD26
:101FD0007B689A687B681B68DB7D101C08211A1CD3
:101FE000FFF7ECFD7B689A687B681B681B7E101C02
:101FF00009211A1CFFF7E2FD7B689A687B681B6861
:102000005B7E101C0A211A1CFFF7D8FD7B681B6839
:102010001B7A002B05D07B689B68181C0021FFF7FA
:102020009BFE7B681B685B7A002B05D07B689B68F6
:10203000181C0221FFF790FE7B681B689B7A002B1F
:1020400005D07B689B68181C0321FFF785FE7B6821
:102050001B68DB7A002B05D07B689B68181C042169
:10206000FFF77AFE7B681B681B7B002B05D07B6823
:102070009B68181C0521FFF76FFE7B681B685B7B64
:10208000002B05D07B689B68181C0121FFF764FEBC
:102090007B681B689B7B002B05D07B689B68181CAA
:1020A0000821FFF759FE7B681B68DB7B002B05D0FE
:1020B0007B689B68181C0921FFF74EFE7B681B6834
:1020C0001B7C002B05D07B689B68181C0A21FFF73E
:1020D00043FEBD4602B080BD80B582B000AF7860DF
:1020E0007B681B684C229B5C002B0ED07B681B68B6
:1020F000196D7B681B6854229A5C7B681B689B6D1A
:10210000081C111C1A1CFFF71FF87B681B685C2257
:102110009B5C002B0ED07B681B68196E7B681B686C
:1021200064229A5C7B681B689B6E081C111C1A1C3D
:10213000FFF70AF87B681B686C229B5C002B0ED0B3
:102140007B681B68196F7B681B6874229A5C7B68CC
:102150001B689B6F081C111C1A1CFEF7F5FF7B689F
:102160001B687C229B5C002B0ED07B681B68802246
:1021700098587B681B688422995C7B681B6888225E
:102180009B581A1CFEF7E0FFBD4602B080BDC0465A
:1021900090B585B002AF78607B689A687B681B68F1
:1021A000DB69101C01211A1CFFF750FC7B689A6840
:1021B0007B681B681B6A101C02211A1CFFF746FC77
:1021C0007B689A687B681B685B6A101C03211A1C79
:1021D000FFF73CFC7B681B6828229B5C002B0CD023
:1021E0007B6898687B681B682822995C7B681B6801
:1021F00029229B5C1A1CFFF715FA7B681B682A22B0
:102200009B5C002B0CD07B6898687B681B682A223B
:10221000995C7B681B682B229B5C1A1CFFF736FAC3
:102220007B681B682C229B5C002B09D07B6899681B
:102230007B681B682C229B5C081C191CFFF71EFB8B
:102240007B681B682D229B5C002B09D07B689968FA
:102250007B681B682D229B5C081C191CFFF7F2FA97
:102260007B681B682E229B5C002B09D07B689968D9
:102270007B681B682E229B5C081C191CFFF7C6FAA2
:102280007B681B682F229B5C002B13D07B689968AE
:102290007B681B682F229B5C081C191CFFF728FA1F
:1022A0007B6899687B681B6830229B5C081C191C42
:1022B000FFF73AFA7B681B6831229B5C002B12D037
:1022C0007B6898687B681B683122995C7B681B6817
:1022D00032229C5C7B681B6833229B5C0093221C2F
:1022E0000323FFF73BFA7B681B6837229B5C032BB9
:1022F00018D17B6898687B681B683922995C7B6879
:102300001B6838229B5C1A1CFFF7ECFA7B681B6881
:1023100036229B5C002B05D07B689B68181C0F2124
:10232000FFF7F4FC7B681B6834229B5C002B05D113
:102330007B681B6835229B5C002B11D07B689968F9
:102340007B681B681A6A7B681B685B6A081C111C27
:102350001A1CFFF70DFB7B689B68181CFFF7AAFA95
:10236000BD4603B090BDC04680B584B000AF786074
:102370000F23FB1801221A707B681B7F012B03D0EF
:102380007B681B7F032B19D17B685A687B685B7B5A
:10239000101C191CFFF7AAFC7B681B6828229B5C99
:1023A000002B04D17B689B68181CFFF7BFFC7B687F
:1023B00002221A770F23FB1800221A700F23FB1832
:1023C0001B78181CBD4604B080BDC04680B58AB0DD
:1023D00000AF786039602723FB1801221A700023B0
:1023E0003B627B681B7F002B00D1B0E03B68002B79
:1023F00000D1ACE07B681B6A3B62386A3968FFF742
:1024000049FC031CFB617B68DB6ABB617B681B6B5F
:102410007B617B681B689B6C1B7801221340DBB2DD
:10242000002B50D0FB695B08FB61FB69002B00D1DE
:102430008DE0FB69494A934200D988E0FB697A69DB
:1024400053435B003B613B69181C4549FFF722FC85
:10245000031C3B617A69BB69D318414AD31AFA69F4
:1024600053435B00FB60FB68181C3D49FFF712FCFF
:10247000031CFB607B689A68FB699BB2013B9BB2C3
:10248000101C191CFFF770FB7B689A683B699BB2B4
:10249000101C00211A1CFFF775FB7B689A68FB680B
:1024A0009BB2101C01211A1CFFF76CFB7B685A6859
:1024B0007B681B69101C191CFFF742FC2723FB18C3
:1024C00000221A7043E0FB69244A93423FD8FB691B
:1024D0007A6953433B613B69181C2149FFF7DAFBDA
:1024E000031C3B617A69BB69D318FA695343FB60EB
:1024F000FB68181C1A49FFF7CDFB031CFB607B68C7
:102500009A68FB699BB2013B9BB2101C191CFFF738
:102510002BFB7B689A683B699BB2101C00211A1C3C
:10252000FFF730FB7B689A68FB689BB2101C0121A7
:102530001A1CFFF727FB7B685A687B681B69101C15
:10254000191CFFF7FDFB2723FB1800221A70272315
:10255000FB181B78181CBD460AB080BDFFFF0000A9
:102560001027000080B582B000AF78607B688022C1
:102570005200DA60BD4602B080BDC04680B582B070
:1025800000AF78607B685B7B01225340DBB2002B9D
:102590000FD07B689A687B681B7B101C191CFEF7A8
:1025A000C9FF7B689B68181CFFF7DCFF7B68012272
:1025B0005A730023181CBD4602B080BD80B584B09C
:1025C00000AF78600F23FB1800221A700E23FB184F
:1025D00000221A700D23FB1800221A700C23FB181E
:1025E00000221A700B23FB1800221A707B681B78DC
:1025F00001225340DBB2002B1BD00E23FA180D230F
:10260000FB1812781B781343DAB20C23FB181B78E3
:102610001343D9B20F23FB180B22BA1812780A43BE
:102620001A700F23FB181B78002B02D17B68012244
:102630001A700F23FB181B78181CBD4604B080BD10
:1026400090B585B000AF3B1D044A13CA13C33B1DB0
:10265000181CFEF751FEBD4605B090BD682800105D
:1026600090B583B000AFFB1D00221A70FC1D0B4B10
:10267000181CFFF7A3FF031C2370FB1D1B78002B06
:1026800006D1FC1D064B181CFFF796FB031C23709C
:10269000FB1D1B78181CBD4603B090BD940500209F
:1026A0004805002090B587B000AF0F23FC18FFF756
:1026B000D7FF031C23700F23FB181B78002B00D0BF
:1026C000FEE7FA239B00BB60104B7B60104B7B61E5
:1026D00000233B613B690F4A934201D1BB687B6198
:1026E0003B690D4A934201D17B687B613B690B4A90
:1026F000934201D100233B617B69094A101C191CDC
:10270000FFF764FE3B6901333B61E3E728230000E8
:102710008813000050C30000A0860100F0490200A9
:10272000480500200E4B70B500251E1C0D4CE41A08
:10273000A410A54204D0AB00F35898470135F8E740
:10274000FFF7D0FA084B00251E1C084CE41AA41011
:10275000A54204D0AB00F35898470135F8E770BDA7
:102760008C0500208C0500208C0500208C050020A5
:10277000E61B0010E61B0010F01B0010F01B001001
:10278000FA1B0010FA1B0010281C0010281C001057
:10279000041C0010101C00101C1C00101C1C00103D
:1027A0000000000000000000140000000000000015
:1027B0000000010000000100000001000D00000009
:1027C0000404000000000000A80000000000010058
:1027D000B80000000000010000003F01DC009F0085
:1027E00000000000000000000000000000000000E9
:1027F00000000000B0270010B4270010B827001018
:1028000000000000000000000000000000000000C8
:102810000100000000000004BC27001001000000BF
:10282000A02700100100000000000440000000008C
:10283000C82700100100000000000440050000004F
:10284000D027001000000000000000000000000081
:102850000000000000000000000000000000000078
:10286000000000007C0500200001000000000100C5
:042870000000000064
:102874002C48874600000000000000000000000013
:102884000000000000000000000000000000000044
:1028940025488746000000000000000023488746C2
:1028A4002348874623488746234887462348874644
:1028B4002348874623488746234887462348874634
:1028C400234887460000000022488746224887465E
:1028D4002248874622488746224887462248874618
:1028E4002248874622488746224887462248874608
:1028F40022488746224887462248874622488746F8
:1029040022488746224887462248874622488746E7
:102914002248874622488746000000000000000045
:102924002048874699100010991000109910001043
:1029340099100010991000109910001099100010AF
:10294400991000109910001099100010991000109F
:10295400991000109910001099100010991000108F
:10296400991000109910001099100010991000107F
:10297400991000109910001099100010991000106F
:10298400991000109910001099100010991000105F
:10299400991000109910001099100010991000104F
:0829A4009910001099100010B9
:1029AC00D82700100000005000010050000000006B
:1029BC000100000002000000040000000000000004
:1029CC0000000000350C0000A71300000000000000
:1029DC00000000000090D003000100000000005037
:0429EC0000000000E7
:0400000510001019BE
:00000001FF
